:04000000FEEF7FF0A0
:1010000000008FEF08F00550D96EDA6A070EDF6E28
:101010000550D96EDA6A010ED926030EDF6E05502F
:10102000D96EDA6A060ED926010EDF6E0550D96E2A
:10103000DA6A020ED926DF6A0550D96EDA6A030E23
:10104000D926040EDF6E0550D96EDA6A050ED92650
:10105000DF6A0550D96EDA6A040ED926040EDF6EF7
:10106000DEEF08F00550D96EDA6A010EDF6E05502A
:10107000D96EDA6A010ED926030EDF6E0550D96EDD
:10108000DA6A060ED926010EDF6E0550D96EDA6ACD
:10109000020ED926DF6A0550D96EDA6A030ED92608
:1010A000040EDF6E0550D96EDA6A050ED926DF6AA6
:1010B0000550D96EDA6A040ED926040EDF6EDEEF13
:1010C00008F00550D96EDA6ADF6A0550D96EDA6A1F
:1010D000010ED926030EDF6E0550D96EDA6A060EB0
:1010E000D926010EDF6E0550D96EDA6A020ED926B6
:1010F000DF6A0550D96EDA6A030ED926040EDF6E58
:101100000550D96EDA6A050ED926DF6A0550D96E08
:10111000DA6A040ED926040EDF6EDEEF08F001C095
:1011200006F002C007F003C008F004C009F009503F
:10113000000AD8B4CCEF08F0020AD8B4D7EF08F010
:10114000DEEF08F007508D0AD8B4A9EF08F0DEEF03
:1011500008F00650800AD8B461EF08F0DEEF08F01E
:1011600007501B0AD8B4B7EF08F0DEEF08F00650BE
:10117000000AD8B432EF08F0DEEF08F007506C0A2E
:10118000D8B4C5EF08F0DEEF08F00650000AD8B476
:1011900003EF08F0DEEF08F008505B0AD8B4A2EFC6
:1011A00008F0EC0AD8B4B0EF08F0DEEF08F0085011
:1011B000DC0AD8B4BEEF08F0DEEF08F01200370109
:1011C000E0A7E5EF08F0E7EF08F0E9EF08F0ABEF94
:1011D00009F00C50D96EDA6A040ED926090EDF60C8
:1011E000F4EF08F0F6EF08F0ABEF09F00C50D96E11
:1011F000DA6ADE52DE52DE52200EDE5CD8A003EF49
:1012000009F005EF09F007EF09F0ABEF09F0FC0E6C
:10121000E0170C50D96EDA6A6F0078FF0DF06F009E
:1012200078FF0EF06F0078FF0FF06F0078FF10F07E
:10123000160E20EF09F0D89010320F320E320D3218
:10124000E82E1BEF09F00D50E16F0C50D96EDA6AF1
:101250006F0078FF0DF06F0078FF0EF06F0078FFE1
:101260000FF06F0078FF10F0110E3CEF09F0D890EE
:1012700010320F320E320D32E82E37EF09F0030E26
:101280000D160C50D96EDA6A6F0078FF11F06F00FE
:1012900078FF12F06F0078FF13F06F0078FF14F002
:1012A000130E58EF09F0D890143213321232113263
:1012B000E82E53EF09F0070E1116050E156ED890A3
:1012C0001136152E5FEF09F011500D100809E26F6D
:1012D0000C50D96EDA6A6F0078FF0DF06F0078FF5E
:1012E0000EF06F0078FF0FF06F0078FF10F00EC067
:1012F0000DF00FC00EF010C00FF0106A0D50E36F2C
:101300000C50D96EDA6ADF50E46FE59D0C50D96E4F
:10131000DA6A040ED926DF500D6EE5510D18F00B78
:101320000D18E56FE60E016E370E026E0CC00DF063
:10133000050E0D260DC003F0046A0C50D96EDA6A52
:10134000040ED926DF500E6E0E50056E066A7FEC35
:101350000BF03701E087120002C037F003C038F00D
:101360008F501F0B80098F6E8E38E832070B040AEE
:10137000D8A4BDEF09F0BFEF09F0B4EF09F03F0EBC
:101380009116370100910150D96EDA6A010ED92603
:10139000DF50046E043A04460446035104183F0B20
:1013A0000418036F0150D96EDA6ADF50046E0351DE
:1013B0000418C00B0418036F0150D96EDA6A060EC8
:1013C000D926DF50046E04320432045104187F0B16
:1013D0000418046F0150D96EDA6A020ED926DF5064
:1013E000046E043A0446044604510418BF0B041862
:1013F000046F0150D96EDA6A030ED926DF50046EED
:1014000004460446044604510418C70B0418046F2C
:101410000150D96EDA6A050ED926DF50046E0451E8
:101420000418F80B0418046F0150D96EDA6A040E20
:10143000D926DF50046E05510418F80B0418056F07
:10144000058F059D000EB86F000EB96F000EBC6FC2
:10145000000EBD6F808A808C80843901958F959DA8
:10146000958B959995979595958395811F0E8F16D8
:101470008E38E832070B0009D8A441EF0AF043EF99
:101480000AF038EF0AF01200126E0950D8A44BEFA0
:101490000AF04DEF0AF04FEF0AF09EEF0AF012C08B
:1014A0000AF00B6A0C6A0D6A1B0ED8900A360B36CE
:1014B0000C360D36E82E55EF0AF0010E0A100E6EAE
:1014C000070E0B100F6E4C0E0C10106E000E0D1050
:1014D000116E0950D96EDA6A60003BF0DEFF6000E1
:1014E0003FF0DEFF600043F0DEFF600047F0DEFF0C
:1014F00004C001F005C002F009C003F00FEC0CF0CD
:101500000950D96EDA6A070ED92660001BF0DFFF9A
:101510000950D96EDA6A080ED9260850DF6E0950D4
:10152000D96EDA6A090ED92660001FF0DFFF095074
:10153000D96EDA6A040ED926050EDF6E12002DEC84
:101540000CF00400010E3DEC0CF0010E44EC0CF02C
:10155000010E36EC0CF0100E1F6E390E1E6E0E0EC4
:10156000E82EFED71E2EFCD71F2EFAD7100E1F6EA8
:10157000390E1E6E0E0EE82EFED71E2EFCD71F2E25
:10158000FAD7EAEC0BF001C020F002C021F0000E07
:10159000056E000E046E100E066E20C007F021C00E
:1015A00008F0220E096E010E44EC0AF0220E0C6EB9
:1015B000DFEC08F0A1EF0AF0FEEF7FF0000E066E00
:1015C000000E056E03500410D8B4E9EF0AF0EBEFFB
:1015D0000AF013EF0BF0010E076EF3EF0AF0D8904C
:1015E00003360436072A04AEF8EF0AF0FAEF0AF0E1
:1015F000EFEF0AF0D890053606360350015C045030
:101600000258D8A006EF0BF008EF0BF00DEF0BF02F
:101610000350015E0450025A0580D8900432033210
:10162000072EFAEF0AF005C001F006C002F0120022
:101630000850D96EDA6A600027F0DEFF60002BF0F8
:10164000DDFF0850D96EDA6A020ED926600037F045
:10165000DEFF60003BF0DDFF0BC001F00CC002F0CC
:101660000DC003F00EC004F0DEEC0AF00850D96E95
:10167000DA6A040ED926600007F0DEFF60000BF086
:10168000DDFF0850D96EDA6A060ED926DE6ADD6AF9
:101690000850D96EDA6A080ED926DE6ADD6A1200B1
:1016A000C492330E3A01116FC4806091100EED6F39
:1016B000000E016E1B0E026EB70E036E000E046E5E
:1016C000170E056E01EC08F0170E016E000E026E8B
:1016D000000E036EACEC09F0000E0F6E010E106EE2
:1016E000000E126EC80E116EBE0E136E110E146E29
:1016F000000E156E000E166ED1EC0BF0120003C03A
:1017000009F004C00AF001C007F002C008F09EEF23
:101710000BF0600027F0D9FF60002BF0DAFFDF50FC
:101720000B6E094A0A2A60001FF0D9FF600023F0FF
:10173000DAFF60002FF0DFFF074A082A0506D8A06D
:101740000606052806E10628D8A4A9EF0BF0ABEFA2
:101750000BF089EF0BF01200700E3901D96FDBA985
:10176000B4EF0BF0B6EF0BF0AFEF0BF0200EDA1981
:10177000D8B4BDEF0BF0BFEF0BF0D0EF0BF0000EC5
:10178000026E000E016E014A022A600E015CEA0E32
:101790000258D8A0CEEF0BF0D0EF0BF0C3EF0BF058
:1017A000120013C033F014C034F015C035F016C069
:1017B00036F03B0E086E0FC009F010C00AF011C0E1
:1017C0000BF012C00CF0000E0E6E0D0E0D6E18EC2C
:1017D0000BF012003E01F881F8B1F1EF0BF0F3EFDE
:1017E0000BF0ECEF0BF0F051036EEF51056E03C000
:1017F00006F005C001F006C002F0120000EE00F194
:10180000C80EEE6AE806FDE100EE2FF0200EEE6A4B
:10181000E806FDE1000EF86E00019FEF0AF00350AC
:10182000D96EDA6A050ED9260250DF6E0350D96EE2
:10183000DA6A060ED926600007F0DFFF12003E01CB
:10184000F851F30B0409F86FF889000EF16FC280AC
:101850003A0140813E01F88F12004BEC0CF0ACECE9
:101860000BF01FEC0CF050EC0BF01200016E01B00D
:1018700002D0BA9801D0BA881200016E01B002D02D
:10188000BA9401D0BA841200016E01B002D0BA96A7
:0E18900001D0BA861200C294C296C29812000D
:04FFFC00FEEF0BF019
:020000040030CA
:02000000FAFF05
:020004009FFF5C
:00000001FF
